{
  "_format": "hh-sol-artifact-1",
  "contractName": "MyContract",
  "sourceName": "contracts/MyContract.sol",
  "abi": [
    {
      "inputs": [],
      "name": "helloWorld",
      "outputs": [
        {
          "internalType": "string",
          "name": "",
          "type": "string"
        }
      ],
      "stateMutability": "view",
      "type": "function"
    },
    {
      "inputs": [],
      "name": "message",
      "outputs": [
        {
          "internalType": "string",
          "name": "",
          "type": "string"
        }
      ],
      "stateMutability": "view",
      "type": "function"
    },
    {
      "inputs": [
        {
          "internalType": "uint256",
          "name": "firstNum",
          "type": "uint256"
        },
        {
          "internalType": "uint256",
          "name": "secondNum",
          "type": "uint256"
        }
      ],
      "name": "sum",
      "outputs": [
        {
          "internalType": "uint256",
          "name": "",
          "type": "uint256"
        }
      ],
      "stateMutability": "pure",
      "type": "function"
    }
  ],
  "bytecode": "0x60806040526040518060400160405280600d81526020017f48656c6c6f2c20576f726c6421000000000000000000000000000000000000008152506000908161004891906102ab565b5034801561005557600080fd5b5061037d565b600081519050919050565b7f4e487b7100000000000000000000000000000000000000000000000000000000600052604160045260246000fd5b7f4e487b7100000000000000000000000000000000000000000000000000000000600052602260045260246000fd5b600060028204905060018216806100dc57607f821691505b6020821081036100ef576100ee610095565b5b50919050565b60008190508160005260206000209050919050565b60006020601f8301049050919050565b600082821b905092915050565b6000600883026101577fffffffffffffffffffffffffffffffffffffffffffffffffffffffffffffffff8261011a565b610161868361011a565b95508019841693508086168417925050509392505050565b6000819050919050565b6000819050919050565b60006101a86101a361019e84610179565b610183565b610179565b9050919050565b6000819050919050565b6101c28361018d565b6101d66101ce826101af565b848454610127565b825550505050565b600090565b6101eb6101de565b6101f68184846101b9565b505050565b5b8181101561021a5761020f6000826101e3565b6001810190506101fc565b5050565b601f82111561025f57610230816100f5565b6102398461010a565b81016020851015610248578190505b61025c6102548561010a565b8301826101fb565b50505b505050565b600082821c905092915050565b600061028260001984600802610264565b1980831691505092915050565b600061029b8383610271565b9150826002028217905092915050565b6102b48261005b565b67ffffffffffffffff8111156102cd576102cc610066565b5b6102d782546100c4565b6102e282828561021e565b600060209050601f8311600181146103155760008415610303578287015190505b61030d858261028f565b865550610375565b601f198416610323866100f5565b60005b8281101561034b57848901518255600182019150602085019450602081019050610326565b868310156103685784890151610364601f891682610271565b8355505b6001600288020188555050505b505050505050565b6104388061038c6000396000f3fe608060405234801561001057600080fd5b50600436106100415760003560e01c8063c605f76c14610046578063cad0899b14610064578063e21f37ce14610094575b600080fd5b61004e6100b2565b60405161005b9190610278565b60405180910390f35b61007e600480360381019061007991906102d5565b610144565b60405161008b9190610324565b60405180910390f35b61009c61015a565b6040516100a99190610278565b60405180910390f35b6060600080546100c19061036e565b80601f01602080910402602001604051908101604052809291908181526020018280546100ed9061036e565b801561013a5780601f1061010f5761010080835404028352916020019161013a565b820191906000526020600020905b81548152906001019060200180831161011d57829003601f168201915b5050505050905090565b6000818361015291906103ce565b905092915050565b600080546101679061036e565b80601f01602080910402602001604051908101604052809291908181526020018280546101939061036e565b80156101e05780601f106101b5576101008083540402835291602001916101e0565b820191906000526020600020905b8154815290600101906020018083116101c357829003601f168201915b505050505081565b600081519050919050565b600082825260208201905092915050565b60005b83811015610222578082015181840152602081019050610207565b60008484015250505050565b6000601f19601f8301169050919050565b600061024a826101e8565b61025481856101f3565b9350610264818560208601610204565b61026d8161022e565b840191505092915050565b60006020820190508181036000830152610292818461023f565b905092915050565b600080fd5b6000819050919050565b6102b28161029f565b81146102bd57600080fd5b50565b6000813590506102cf816102a9565b92915050565b600080604083850312156102ec576102eb61029a565b5b60006102fa858286016102c0565b925050602061030b858286016102c0565b9150509250929050565b61031e8161029f565b82525050565b60006020820190506103396000830184610315565b92915050565b7f4e487b7100000000000000000000000000000000000000000000000000000000600052602260045260246000fd5b6000600282049050600182168061038657607f821691505b6020821081036103995761039861033f565b5b50919050565b7f4e487b7100000000000000000000000000000000000000000000000000000000600052601160045260246000fd5b60006103d98261029f565b91506103e48361029f565b92508282019050808211156103fc576103fb61039f565b5b9291505056fea2646970667358221220ad525c4060d3ffa959594c19763ce46c43aa48fa4f6aa01679b92d25040c1aa064736f6c634300081c0033",
  "linkReferences": {},
  "deployedLinkReferences": {}
}